{
  "_format": "hh-sol-artifact-1",
  "contractName": "NewPolling",
  "sourceName": "contracts/NewPolling.sol",
  "abi": [
    {
      "inputs": [],
      "stateMutability": "nonpayable",
      "type": "constructor"
    },
    {
      "inputs": [
        {
          "internalType": "string",
          "name": "name",
          "type": "string"
        }
      ],
      "name": "addCandidate",
      "outputs": [],
      "stateMutability": "nonpayable",
      "type": "function"
    },
    {
      "inputs": [],
      "name": "chairperson",
      "outputs": [
        {
          "internalType": "address",
          "name": "",
          "type": "address"
        }
      ],
      "stateMutability": "view",
      "type": "function"
    },
    {
      "inputs": [
        {
          "internalType": "string",
          "name": "_a",
          "type": "string"
        },
        {
          "internalType": "string",
          "name": "_b",
          "type": "string"
        }
      ],
      "name": "compare",
      "outputs": [
        {
          "internalType": "int256",
          "name": "",
          "type": "int256"
        }
      ],
      "stateMutability": "nonpayable",
      "type": "function"
    },
    {
      "inputs": [],
      "name": "getProposalLists",
      "outputs": [
        {
          "components": [
            {
              "internalType": "string",
              "name": "name",
              "type": "string"
            },
            {
              "internalType": "uint256",
              "name": "voteCount",
              "type": "uint256"
            }
          ],
          "internalType": "struct NewPolling.Proposal[]",
          "name": "",
          "type": "tuple[]"
        }
      ],
      "stateMutability": "view",
      "type": "function"
    },
    {
      "inputs": [],
      "name": "getVotersList",
      "outputs": [
        {
          "components": [
            {
              "internalType": "address",
              "name": "voter",
              "type": "address"
            },
            {
              "internalType": "string",
              "name": "name",
              "type": "string"
            },
            {
              "internalType": "bool",
              "name": "voted",
              "type": "bool"
            }
          ],
          "internalType": "struct NewPolling.Voter[]",
          "name": "",
          "type": "tuple[]"
        }
      ],
      "stateMutability": "view",
      "type": "function"
    },
    {
      "inputs": [
        {
          "internalType": "address",
          "name": "",
          "type": "address"
        }
      ],
      "name": "newVoters",
      "outputs": [
        {
          "internalType": "address",
          "name": "voter",
          "type": "address"
        },
        {
          "internalType": "string",
          "name": "name",
          "type": "string"
        },
        {
          "internalType": "bool",
          "name": "voted",
          "type": "bool"
        }
      ],
      "stateMutability": "view",
      "type": "function"
    },
    {
      "inputs": [
        {
          "internalType": "uint256",
          "name": "",
          "type": "uint256"
        }
      ],
      "name": "proposals",
      "outputs": [
        {
          "internalType": "string",
          "name": "name",
          "type": "string"
        },
        {
          "internalType": "uint256",
          "name": "voteCount",
          "type": "uint256"
        }
      ],
      "stateMutability": "view",
      "type": "function"
    },
    {
      "inputs": [
        {
          "internalType": "uint256",
          "name": "",
          "type": "uint256"
        }
      ],
      "name": "selectedCandidates",
      "outputs": [
        {
          "internalType": "string",
          "name": "",
          "type": "string"
        }
      ],
      "stateMutability": "view",
      "type": "function"
    },
    {
      "inputs": [
        {
          "internalType": "string",
          "name": "name",
          "type": "string"
        }
      ],
      "name": "vote",
      "outputs": [],
      "stateMutability": "nonpayable",
      "type": "function"
    },
    {
      "inputs": [
        {
          "internalType": "uint256",
          "name": "",
          "type": "uint256"
        }
      ],
      "name": "voters",
      "outputs": [
        {
          "internalType": "address",
          "name": "voter",
          "type": "address"
        },
        {
          "internalType": "string",
          "name": "name",
          "type": "string"
        },
        {
          "internalType": "bool",
          "name": "voted",
          "type": "bool"
        }
      ],
      "stateMutability": "view",
      "type": "function"
    },
    {
      "inputs": [],
      "name": "winner",
      "outputs": [
        {
          "internalType": "string",
          "name": "",
          "type": "string"
        }
      ],
      "stateMutability": "view",
      "type": "function"
    },
    {
      "inputs": [],
      "name": "winnerName",
      "outputs": [
        {
          "internalType": "string",
          "name": "winnerName_",
          "type": "string"
        }
      ],
      "stateMutability": "view",
      "type": "function"
    },
    {
      "inputs": [],
      "name": "winningProposal",
      "outputs": [
        {
          "internalType": "uint256",
          "name": "winningProposal_",
          "type": "uint256"
        }
      ],
      "stateMutability": "view",
      "type": "function"
    }
  ],
  "bytecode": "0x60806040523480156200001157600080fd5b5033600460006101000a81548173ffffffffffffffffffffffffffffffffffffffff021916908373ffffffffffffffffffffffffffffffffffffffff160217905550620000c16040518060400160405280600e81526020017f6368616972706572736f6e203a20000000000000000000000000000000000000815250600460009054906101000a900473ffffffffffffffffffffffffffffffffffffffff16620000c760201b6200107c1760201c565b620002b3565b620001698282604051602401620000e0929190620001e8565b6040516020818303038152906040527f319af333000000000000000000000000000000000000000000000000000000007bffffffffffffffffffffffffffffffffffffffffffffffffffffffff19166020820180517bffffffffffffffffffffffffffffffffffffffffffffffffffffffff83818316178352505050506200016d60201b60201c565b5050565b60008151905060006a636f6e736f6c652e6c6f679050602083016000808483855afa5050505050565b620001a18162000238565b82525050565b6000620001b4826200021c565b620001c0818562000227565b9350620001d28185602086016200026c565b620001dd81620002a2565b840191505092915050565b60006040820190508181036000830152620002048185620001a7565b905062000215602083018462000196565b9392505050565b600081519050919050565b600082825260208201905092915050565b600062000245826200024c565b9050919050565b600073ffffffffffffffffffffffffffffffffffffffff82169050919050565b60005b838110156200028c5780820151818401526020810190506200026f565b838111156200029c576000848401525b50505050565b6000601f19601f8301169050919050565b611ab580620002c36000396000f3fe608060405234801561001057600080fd5b50600436106100cf5760003560e01c806361ea9e4c1161008c578063da58c7d911610066578063da58c7d91461022b578063dfbf53ae1461025d578063e2ba53f01461027b578063fc36e15b14610299576100cf565b806361ea9e4c146101ab578063868f41d4146101db578063bc86f3851461020d576100cf565b8063013cf08b146100d45780631587d5fe146101055780632e4176cf146101235780633a96fdd714610141578063462e91ec14610171578063609ff1bd1461018d575b600080fd5b6100ee60048036038101906100e9919061134c565b6102b5565b6040516100fc929190611739565b60405180910390f35b61010d610371565b60405161011a9190611688565b60405180910390f35b61012b61046c565b604051610138919061162f565b60405180910390f35b61015b600480360381019061015691906112e0565b610492565b60405161016891906116cc565b60405180910390f35b61018b6004803603810190610186919061129f565b610706565b005b610195610773565b6040516101a29190611789565b60405180910390f35b6101c560048036038101906101c0919061134c565b610847565b6040516101d291906116e7565b60405180910390f35b6101f560048036038101906101f09190611276565b6108f3565b6040516102049392919061164a565b60405180910390f35b6102156109d2565b60405161022291906116aa565b60405180910390f35b6102456004803603810190610240919061134c565b610b34565b6040516102549392919061164a565b60405180910390f35b610265610c23565b60405161027291906116e7565b60405180910390f35b610283610cb1565b60405161029091906116e7565b60405180910390f35b6102b360048036038101906102ae919061129f565b610d93565b005b600381815481106102c557600080fd5b90600052602060002090600202016000915090508060000180546102e890611938565b80601f016020809104026020016040519081016040528092919081815260200182805461031490611938565b80156103615780601f1061033657610100808354040283529160200191610361565b820191906000526020600020905b81548152906001019060200180831161034457829003601f168201915b5050505050908060010154905082565b60606003805480602002602001604051908101604052809291908181526020016000905b8282101561046357838290600052602060002090600202016040518060400160405290816000820180546103c890611938565b80601f01602080910402602001604051908101604052809291908181526020018280546103f490611938565b80156104415780601f1061041657610100808354040283529160200191610441565b820191906000526020600020905b81548152906001019060200180831161042457829003601f168201915b5050505050815260200160018201548152505081526020019060010190610395565b50505050905090565b600460009054906101000a900473ffffffffffffffffffffffffffffffffffffffff1681565b600080839050600083905060008251905080825110156104b157815190505b60005b818110156106ac578281815181106104f5577f4e487b7100000000000000000000000000000000000000000000000000000000600052603260045260246000fd5b602001015160f81c60f81b7effffffffffffffffffffffffffffffffffffffffffffffffffffffffffffff191684828151811061055b577f4e487b7100000000000000000000000000000000000000000000000000000000600052603260045260246000fd5b602001015160f81c60f81b7effffffffffffffffffffffffffffffffffffffffffffffffffffffffffffff191610156105ba577fffffffffffffffffffffffffffffffffffffffffffffffffffffffffffffffff945050505050610700565b8281815181106105f3577f4e487b7100000000000000000000000000000000000000000000000000000000600052603260045260246000fd5b602001015160f81c60f81b7effffffffffffffffffffffffffffffffffffffffffffffffffffffffffffff1916848281518110610659577f4e487b7100000000000000000000000000000000000000000000000000000000600052603260045260246000fd5b602001015160f81c60f81b7effffffffffffffffffffffffffffffffffffffffffffffffffffffffffffff19161115610699576001945050505050610700565b80806106a49061196a565b9150506104b4565b508151835110156106e2577fffffffffffffffffffffffffffffffffffffffffffffffffffffffffffffffff9350505050610700565b8151835111156106f85760019350505050610700565b600093505050505b92915050565b60036040518060400160405280838152602001600081525090806001815401808255809150506001900390600052602060002090600202016000909190919091506000820151816000019080519060200190610763929190611141565b5060208201518160010155505050565b6000806000905060005b6003805490508110156108425781600382815481106107c5577f4e487b7100000000000000000000000000000000000000000000000000000000600052603260045260246000fd5b906000526020600020906002020160010154111561082f5760038181548110610817577f4e487b7100000000000000000000000000000000000000000000000000000000600052603260045260246000fd5b90600052602060002090600202016001015491508092505b808061083a9061196a565b91505061077d565b505090565b6000818154811061085757600080fd5b90600052602060002001600091509050805461087290611938565b80601f016020809104026020016040519081016040528092919081815260200182805461089e90611938565b80156108eb5780601f106108c0576101008083540402835291602001916108eb565b820191906000526020600020905b8154815290600101906020018083116108ce57829003601f168201915b505050505081565b60016020528060005260406000206000915090508060000160009054906101000a900473ffffffffffffffffffffffffffffffffffffffff169080600101805461093c90611938565b80601f016020809104026020016040519081016040528092919081815260200182805461096890611938565b80156109b55780601f1061098a576101008083540402835291602001916109b5565b820191906000526020600020905b81548152906001019060200180831161099857829003601f168201915b5050505050908060020160009054906101000a900460ff16905083565b60606002805480602002602001604051908101604052809291908181526020016000905b82821015610b2b57838290600052602060002090600302016040518060600160405290816000820160009054906101000a900473ffffffffffffffffffffffffffffffffffffffff1673ffffffffffffffffffffffffffffffffffffffff1673ffffffffffffffffffffffffffffffffffffffff168152602001600182018054610a7f90611938565b80601f0160208091040260200160405190810160405280929190818152602001828054610aab90611938565b8015610af85780601f10610acd57610100808354040283529160200191610af8565b820191906000526020600020905b815481529060010190602001808311610adb57829003601f168201915b505050505081526020016002820160009054906101000a900460ff161515151581525050815260200190600101906109f6565b50505050905090565b60028181548110610b4457600080fd5b90600052602060002090600302016000915090508060000160009054906101000a900473ffffffffffffffffffffffffffffffffffffffff1690806001018054610b8d90611938565b80601f0160208091040260200160405190810160405280929190818152602001828054610bb990611938565b8015610c065780601f10610bdb57610100808354040283529160200191610c06565b820191906000526020600020905b815481529060010190602001808311610be957829003601f168201915b5050505050908060020160009054906101000a900460ff16905083565b60058054610c3090611938565b80601f0160208091040260200160405190810160405280929190818152602001828054610c5c90611938565b8015610ca95780601f10610c7e57610100808354040283529160200191610ca9565b820191906000526020600020905b815481529060010190602001808311610c8c57829003601f168201915b505050505081565b60606003610cbd610773565b81548110610cf4577f4e487b7100000000000000000000000000000000000000000000000000000000600052603260045260246000fd5b90600052602060002090600202016000018054610d1090611938565b80601f0160208091040260200160405190810160405280929190818152602001828054610d3c90611938565b8015610d895780601f10610d5e57610100808354040283529160200191610d89565b820191906000526020600020905b815481529060010190602001808311610d6c57829003601f168201915b5050505050905090565b6000600160003373ffffffffffffffffffffffffffffffffffffffff1673ffffffffffffffffffffffffffffffffffffffff16815260200190815260200160002090508060020160009054906101000a900460ff1615610e28576040517f08c379a0000000000000000000000000000000000000000000000000000000008152600401610e1f90611769565b60405180910390fd5b600260405180606001604052803373ffffffffffffffffffffffffffffffffffffffff16815260200184815260200160011515815250908060018154018082558091505060019003906000526020600020906003020160009091909190915060008201518160000160006101000a81548173ffffffffffffffffffffffffffffffffffffffff021916908373ffffffffffffffffffffffffffffffffffffffff1602179055506020820151816001019080519060200190610eea929190611141565b5060408201518160020160006101000a81548160ff021916908315150217905550505060005b600380549050811015611077576000610ffc60038381548110610f5c577f4e487b7100000000000000000000000000000000000000000000000000000000600052603260045260246000fd5b90600052602060002090600202016000018054610f7890611938565b80601f0160208091040260200160405190810160405280929190818152602001828054610fa490611938565b8015610ff15780601f10610fc657610100808354040283529160200191610ff1565b820191906000526020600020905b815481529060010190602001808311610fd457829003601f168201915b505050505085610492565b1415611064576003818154811061103c577f4e487b7100000000000000000000000000000000000000000000000000000000600052603260045260246000fd5b9060005260206000209060020201600101600081548092919061105e9061196a565b91905055505b808061106f9061196a565b915050610f10565b505050565b6111148282604051602401611092929190611709565b6040516020818303038152906040527f319af333000000000000000000000000000000000000000000000000000000007bffffffffffffffffffffffffffffffffffffffffffffffffffffffff19166020820180517bffffffffffffffffffffffffffffffffffffffffffffffffffffffff8381831617835250505050611118565b5050565b60008151905060006a636f6e736f6c652e6c6f679050602083016000808483855afa5050505050565b82805461114d90611938565b90600052602060002090601f01602090048101928261116f57600085556111b6565b82601f1061118857805160ff19168380011785556111b6565b828001600101855582156111b6579182015b828111156111b557825182559160200191906001019061119a565b5b5090506111c391906111c7565b5090565b5b808211156111e05760008160009055506001016111c8565b5090565b60006111f76111f2846117d5565b6117a4565b90508281526020810184848401111561120f57600080fd5b61121a8482856118f6565b509392505050565b60008135905061123181611a51565b92915050565b600082601f83011261124857600080fd5b81356112588482602086016111e4565b91505092915050565b60008135905061127081611a68565b92915050565b60006020828403121561128857600080fd5b600061129684828501611222565b91505092915050565b6000602082840312156112b157600080fd5b600082013567ffffffffffffffff8111156112cb57600080fd5b6112d784828501611237565b91505092915050565b600080604083850312156112f357600080fd5b600083013567ffffffffffffffff81111561130d57600080fd5b61131985828601611237565b925050602083013567ffffffffffffffff81111561133657600080fd5b61134285828601611237565b9150509250929050565b60006020828403121561135e57600080fd5b600061136c84828501611261565b91505092915050565b60006113818383611584565b905092915050565b600061139583836115c1565b905092915050565b6113a6816118a4565b82525050565b6113b5816118a4565b82525050565b60006113c682611825565b6113d08185611860565b9350836020820285016113e285611805565b8060005b8581101561141e57848403895281516113ff8582611375565b945061140a83611846565b925060208a019950506001810190506113e6565b50829750879550505050505092915050565b600061143b82611830565b6114458185611871565b93508360208202850161145785611815565b8060005b8581101561149357848403895281516114748582611389565b945061147f83611853565b925060208a0199505060018101905061145b565b50829750879550505050505092915050565b6114ae816118b6565b82525050565b6114bd816118b6565b82525050565b6114cc816118c2565b82525050565b60006114dd8261183b565b6114e78185611882565b93506114f7818560208601611905565b61150081611a40565b840191505092915050565b60006115168261183b565b6115208185611893565b9350611530818560208601611905565b61153981611a40565b840191505092915050565b6000611551601783611893565b91507f596f75206861766520616c726561647920766f7465642e0000000000000000006000830152602082019050919050565b600060408301600083015184820360008601526115a182826114d2565b91505060208301516115b66020860182611611565b508091505092915050565b60006060830160008301516115d9600086018261139d565b50602083015184820360208601526115f182826114d2565b915050604083015161160660408601826114a5565b508091505092915050565b61161a816118ec565b82525050565b611629816118ec565b82525050565b600060208201905061164460008301846113ac565b92915050565b600060608201905061165f60008301866113ac565b8181036020830152611671818561150b565b905061168060408301846114b4565b949350505050565b600060208201905081810360008301526116a281846113bb565b905092915050565b600060208201905081810360008301526116c48184611430565b905092915050565b60006020820190506116e160008301846114c3565b92915050565b60006020820190508181036000830152611701818461150b565b905092915050565b60006040820190508181036000830152611723818561150b565b905061173260208301846113ac565b9392505050565b60006040820190508181036000830152611753818561150b565b90506117626020830184611620565b9392505050565b6000602082019050818103600083015261178281611544565b9050919050565b600060208201905061179e6000830184611620565b92915050565b6000604051905081810181811067ffffffffffffffff821117156117cb576117ca611a11565b5b8060405250919050565b600067ffffffffffffffff8211156117f0576117ef611a11565b5b601f19601f8301169050602081019050919050565b6000819050602082019050919050565b6000819050602082019050919050565b600081519050919050565b600081519050919050565b600081519050919050565b6000602082019050919050565b6000602082019050919050565b600082825260208201905092915050565b600082825260208201905092915050565b600082825260208201905092915050565b600082825260208201905092915050565b60006118af826118cc565b9050919050565b60008115159050919050565b6000819050919050565b600073ffffffffffffffffffffffffffffffffffffffff82169050919050565b6000819050919050565b82818337600083830152505050565b60005b83811015611923578082015181840152602081019050611908565b83811115611932576000848401525b50505050565b6000600282049050600182168061195057607f821691505b60208210811415611964576119636119e2565b5b50919050565b6000611975826118ec565b91507fffffffffffffffffffffffffffffffffffffffffffffffffffffffffffffffff8214156119a8576119a76119b3565b5b600182019050919050565b7f4e487b7100000000000000000000000000000000000000000000000000000000600052601160045260246000fd5b7f4e487b7100000000000000000000000000000000000000000000000000000000600052602260045260246000fd5b7f4e487b7100000000000000000000000000000000000000000000000000000000600052604160045260246000fd5b6000601f19601f8301169050919050565b611a5a816118a4565b8114611a6557600080fd5b50565b611a71816118ec565b8114611a7c57600080fd5b5056fea2646970667358221220ef907e37207fcfbe110869a5bada3585decc5269396ba416518360f2e9f4ba4364736f6c63430008000033",
  "linkReferences": {},
  "deployedLinkReferences": {}
}